{
  "_format": "hh-sol-artifact-1",
  "contractName": "DAO",
  "sourceName": "contracts/DAO.sol",
  "abi": [
    {
      "inputs": [
        {
          "internalType": "address",
          "name": "_token",
          "type": "address"
        }
      ],
      "stateMutability": "nonpayable",
      "type": "constructor"
    },
    {
      "anonymous": false,
      "inputs": [
        {
          "indexed": false,
          "internalType": "uint256",
          "name": "id",
          "type": "uint256"
        },
        {
          "indexed": false,
          "internalType": "address",
          "name": "proposer",
          "type": "address"
        },
        {
          "indexed": false,
          "internalType": "string",
          "name": "description",
          "type": "string"
        }
      ],
      "name": "ProposalCreated",
      "type": "event"
    },
    {
      "anonymous": false,
      "inputs": [
        {
          "indexed": false,
          "internalType": "uint256",
          "name": "id",
          "type": "uint256"
        },
        {
          "indexed": false,
          "internalType": "bool",
          "name": "passed",
          "type": "bool"
        }
      ],
      "name": "ProposalExecuted",
      "type": "event"
    },
    {
      "anonymous": false,
      "inputs": [
        {
          "indexed": false,
          "internalType": "uint256",
          "name": "id",
          "type": "uint256"
        },
        {
          "indexed": false,
          "internalType": "address",
          "name": "voter",
          "type": "address"
        },
        {
          "indexed": false,
          "internalType": "bool",
          "name": "support",
          "type": "bool"
        }
      ],
      "name": "Voted",
      "type": "event"
    },
    {
      "inputs": [
        {
          "internalType": "string",
          "name": "_description",
          "type": "string"
        }
      ],
      "name": "createProposal",
      "outputs": [],
      "stateMutability": "nonpayable",
      "type": "function"
    },
    {
      "inputs": [
        {
          "internalType": "uint256",
          "name": "_proposalId",
          "type": "uint256"
        }
      ],
      "name": "executeProposal",
      "outputs": [],
      "stateMutability": "nonpayable",
      "type": "function"
    },
    {
      "inputs": [],
      "name": "governanceToken",
      "outputs": [
        {
          "internalType": "contract IToken",
          "name": "",
          "type": "address"
        }
      ],
      "stateMutability": "view",
      "type": "function"
    },
    {
      "inputs": [
        {
          "internalType": "uint256",
          "name": "",
          "type": "uint256"
        },
        {
          "internalType": "address",
          "name": "",
          "type": "address"
        }
      ],
      "name": "hasVoted",
      "outputs": [
        {
          "internalType": "bool",
          "name": "",
          "type": "bool"
        }
      ],
      "stateMutability": "view",
      "type": "function"
    },
    {
      "inputs": [],
      "name": "proposalCount",
      "outputs": [
        {
          "internalType": "uint256",
          "name": "",
          "type": "uint256"
        }
      ],
      "stateMutability": "view",
      "type": "function"
    },
    {
      "inputs": [
        {
          "internalType": "uint256",
          "name": "",
          "type": "uint256"
        }
      ],
      "name": "proposals",
      "outputs": [
        {
          "internalType": "uint256",
          "name": "id",
          "type": "uint256"
        },
        {
          "internalType": "address",
          "name": "proposer",
          "type": "address"
        },
        {
          "internalType": "string",
          "name": "description",
          "type": "string"
        },
        {
          "internalType": "uint256",
          "name": "yesVotes",
          "type": "uint256"
        },
        {
          "internalType": "uint256",
          "name": "noVotes",
          "type": "uint256"
        },
        {
          "internalType": "uint256",
          "name": "deadline",
          "type": "uint256"
        },
        {
          "internalType": "bool",
          "name": "executed",
          "type": "bool"
        }
      ],
      "stateMutability": "view",
      "type": "function"
    },
    {
      "inputs": [
        {
          "internalType": "uint256",
          "name": "_proposalId",
          "type": "uint256"
        },
        {
          "internalType": "bool",
          "name": "support",
          "type": "bool"
        }
      ],
      "name": "vote",
      "outputs": [],
      "stateMutability": "nonpayable",
      "type": "function"
    }
  ],
  "bytecode": "0x608060405234801561001057600080fd5b5060405161160e38038061160e833981810160405281019061003291906100db565b806000806101000a81548173ffffffffffffffffffffffffffffffffffffffff021916908373ffffffffffffffffffffffffffffffffffffffff16021790555050610108565b600080fd5b600073ffffffffffffffffffffffffffffffffffffffff82169050919050565b60006100a88261007d565b9050919050565b6100b88161009d565b81146100c357600080fd5b50565b6000815190506100d5816100af565b92915050565b6000602082840312156100f1576100f0610078565b5b60006100ff848285016100c6565b91505092915050565b6114f7806101176000396000f3fe608060405234801561001057600080fd5b506004361061007d5760003560e01c806349c2a1a61161005b57806349c2a1a614610104578063c9d27afe14610120578063da35c6641461013c578063f96dae0a1461015a5761007d565b8063013cf08b146100825780630d61b519146100b857806343859632146100d4575b600080fd5b61009c6004803603810190610097919061097a565b610178565b6040516100af9796959493929190610aa2565b60405180910390f35b6100d260048036038101906100cd919061097a565b61026f565b005b6100ee60048036038101906100e99190610b44565b610389565b6040516100fb9190610b84565b60405180910390f35b61011e60048036038101906101199190610c04565b6103b8565b005b61013a60048036038101906101359190610c7d565b61064f565b005b610144610910565b6040516101519190610cbd565b60405180910390f35b610162610916565b60405161016f9190610d37565b60405180910390f35b60026020528060005260406000206000915090508060000154908060010160009054906101000a900473ffffffffffffffffffffffffffffffffffffffff16908060020180546101c790610d81565b80601f01602080910402602001604051908101604052809291908181526020018280546101f390610d81565b80156102405780601f1061021557610100808354040283529160200191610240565b820191906000526020600020905b81548152906001019060200180831161022357829003601f168201915b5050505050908060030154908060040154908060050154908060060160009054906101000a900460ff16905087565b600060026000838152602001908152602001600020905080600501544210156102cd576040517f08c379a00000000000000000000000000000000000000000000000000000000081526004016102c490610dfe565b60405180910390fd5b8060060160009054906101000a900460ff161561031f576040517f08c379a000000000000000000000000000000000000000000000000000000000815260040161031690610e6a565b60405180910390fd5b60018160060160006101000a81548160ff0219169083151502179055506000816004015482600301541190507f948f4a9cd986f1118c3fbd459f7a22b23c0693e1ca3ef06a6a8be5aa7d39cc03838260405161037c929190610e8a565b60405180910390a1505050565b60036020528160005260406000206020528060005260406000206000915091509054906101000a900460ff1681565b60008060009054906101000a900473ffffffffffffffffffffffffffffffffffffffff1673ffffffffffffffffffffffffffffffffffffffff166370a08231336040518263ffffffff1660e01b81526004016104149190610eb3565b602060405180830381865afa158015610431573d6000803e3d6000fd5b505050506040513d601f19601f820116820180604052508101906104559190610ee3565b11610495576040517f08c379a000000000000000000000000000000000000000000000000000000000815260040161048c90610f5c565b60405180910390fd5b600160008154809291906104a890610fab565b91905055506040518060e0016040528060015481526020013373ffffffffffffffffffffffffffffffffffffffff16815260200183838080601f016020809104026020016040519081016040528093929190818152602001838380828437600081840152601f19601f82011690508083019250505050505050815260200160008152602001600081526020016203f480426105439190610ff3565b8152602001600015158152506002600060015481526020019081526020016000206000820151816000015560208201518160010160006101000a81548173ffffffffffffffffffffffffffffffffffffffff021916908373ffffffffffffffffffffffffffffffffffffffff16021790555060408201518160020190816105ca91906111f8565b50606082015181600301556080820151816004015560a0820151816005015560c08201518160060160006101000a81548160ff0219169083151502179055509050507f7585f467599d0f008985f231af99293be388626ac16ca59505c2f8f88969cd636001543384846040516106439493929190611306565b60405180910390a15050565b6000600260008481526020019081526020016000209050806005015442106106ac576040517f08c379a00000000000000000000000000000000000000000000000000000000081526004016106a390611392565b60405180910390fd5b6003600084815260200190815260200160002060003373ffffffffffffffffffffffffffffffffffffffff1673ffffffffffffffffffffffffffffffffffffffff16815260200190815260200160002060009054906101000a900460ff161561074a576040517f08c379a0000000000000000000000000000000000000000000000000000000008152600401610741906113fe565b60405180910390fd5b60008060009054906101000a900473ffffffffffffffffffffffffffffffffffffffff1673ffffffffffffffffffffffffffffffffffffffff166370a08231336040518263ffffffff1660e01b81526004016107a69190610eb3565b602060405180830381865afa1580156107c3573d6000803e3d6000fd5b505050506040513d601f19601f820116820180604052508101906107e79190610ee3565b11610827576040517f08c379a000000000000000000000000000000000000000000000000000000000815260040161081e9061146a565b60405180910390fd5b60016003600085815260200190815260200160002060003373ffffffffffffffffffffffffffffffffffffffff1673ffffffffffffffffffffffffffffffffffffffff16815260200190815260200160002060006101000a81548160ff02191690831515021790555081156108b5578060030160008154809291906108ab90610fab565b91905055506108d0565b8060040160008154809291906108ca90610fab565b91905055505b7ff2913dbe661ee2acc4a046d8fbcdc792373bda34c41c6086484b5345e5785e5f8333846040516109039392919061148a565b60405180910390a1505050565b60015481565b60008054906101000a900473ffffffffffffffffffffffffffffffffffffffff1681565b600080fd5b600080fd5b6000819050919050565b61095781610944565b811461096257600080fd5b50565b6000813590506109748161094e565b92915050565b6000602082840312156109905761098f61093a565b5b600061099e84828501610965565b91505092915050565b6109b081610944565b82525050565b600073ffffffffffffffffffffffffffffffffffffffff82169050919050565b60006109e1826109b6565b9050919050565b6109f1816109d6565b82525050565b600081519050919050565b600082825260208201905092915050565b60005b83811015610a31578082015181840152602081019050610a16565b60008484015250505050565b6000601f19601f8301169050919050565b6000610a59826109f7565b610a638185610a02565b9350610a73818560208601610a13565b610a7c81610a3d565b840191505092915050565b60008115159050919050565b610a9c81610a87565b82525050565b600060e082019050610ab7600083018a6109a7565b610ac460208301896109e8565b8181036040830152610ad68188610a4e565b9050610ae560608301876109a7565b610af260808301866109a7565b610aff60a08301856109a7565b610b0c60c0830184610a93565b98975050505050505050565b610b21816109d6565b8114610b2c57600080fd5b50565b600081359050610b3e81610b18565b92915050565b60008060408385031215610b5b57610b5a61093a565b5b6000610b6985828601610965565b9250506020610b7a85828601610b2f565b9150509250929050565b6000602082019050610b996000830184610a93565b92915050565b600080fd5b600080fd5b600080fd5b60008083601f840112610bc457610bc3610b9f565b5b8235905067ffffffffffffffff811115610be157610be0610ba4565b5b602083019150836001820283011115610bfd57610bfc610ba9565b5b9250929050565b60008060208385031215610c1b57610c1a61093a565b5b600083013567ffffffffffffffff811115610c3957610c3861093f565b5b610c4585828601610bae565b92509250509250929050565b610c5a81610a87565b8114610c6557600080fd5b50565b600081359050610c7781610c51565b92915050565b60008060408385031215610c9457610c9361093a565b5b6000610ca285828601610965565b9250506020610cb385828601610c68565b9150509250929050565b6000602082019050610cd260008301846109a7565b92915050565b6000819050919050565b6000610cfd610cf8610cf3846109b6565b610cd8565b6109b6565b9050919050565b6000610d0f82610ce2565b9050919050565b6000610d2182610d04565b9050919050565b610d3181610d16565b82525050565b6000602082019050610d4c6000830184610d28565b92915050565b7f4e487b7100000000000000000000000000000000000000000000000000000000600052602260045260246000fd5b60006002820490506001821680610d9957607f821691505b602082108103610dac57610dab610d52565b5b50919050565b7f546f6f206561726c790000000000000000000000000000000000000000000000600082015250565b6000610de8600983610a02565b9150610df382610db2565b602082019050919050565b60006020820190508181036000830152610e1781610ddb565b9050919050565b7f416c726561647920657865637574656400000000000000000000000000000000600082015250565b6000610e54601083610a02565b9150610e5f82610e1e565b602082019050919050565b60006020820190508181036000830152610e8381610e47565b9050919050565b6000604082019050610e9f60008301856109a7565b610eac6020830184610a93565b9392505050565b6000602082019050610ec860008301846109e8565b92915050565b600081519050610edd8161094e565b92915050565b600060208284031215610ef957610ef861093a565b5b6000610f0784828501610ece565b91505092915050565b7f4f6e6c7920746f6b656e20686f6c646572730000000000000000000000000000600082015250565b6000610f46601283610a02565b9150610f5182610f10565b602082019050919050565b60006020820190508181036000830152610f7581610f39565b9050919050565b7f4e487b7100000000000000000000000000000000000000000000000000000000600052601160045260246000fd5b6000610fb682610944565b91507fffffffffffffffffffffffffffffffffffffffffffffffffffffffffffffffff8203610fe857610fe7610f7c565b5b600182019050919050565b6000610ffe82610944565b915061100983610944565b925082820190508082111561102157611020610f7c565b5b92915050565b7f4e487b7100000000000000000000000000000000000000000000000000000000600052604160045260246000fd5b60008190508160005260206000209050919050565b60006020601f8301049050919050565b600082821b905092915050565b6000600883026110b87fffffffffffffffffffffffffffffffffffffffffffffffffffffffffffffffff8261107b565b6110c2868361107b565b95508019841693508086168417925050509392505050565b60006110f56110f06110eb84610944565b610cd8565b610944565b9050919050565b6000819050919050565b61110f836110da565b61112361111b826110fc565b848454611088565b825550505050565b600090565b61113861112b565b611143818484611106565b505050565b5b818110156111675761115c600082611130565b600181019050611149565b5050565b601f8211156111ac5761117d81611056565b6111868461106b565b81016020851015611195578190505b6111a96111a18561106b565b830182611148565b50505b505050565b600082821c905092915050565b60006111cf600019846008026111b1565b1980831691505092915050565b60006111e883836111be565b9150826002028217905092915050565b611201826109f7565b67ffffffffffffffff81111561121a57611219611027565b5b6112248254610d81565b61122f82828561116b565b600060209050601f8311600181146112625760008415611250578287015190505b61125a85826111dc565b8655506112c2565b601f19841661127086611056565b60005b8281101561129857848901518255600182019150602085019450602081019050611273565b868310156112b557848901516112b1601f8916826111be565b8355505b6001600288020188555050505b505050505050565b82818337600083830152505050565b60006112e58385610a02565b93506112f28385846112ca565b6112fb83610a3d565b840190509392505050565b600060608201905061131b60008301876109a7565b61132860208301866109e8565b818103604083015261133b8184866112d9565b905095945050505050565b7f566f74696e6720656e6465640000000000000000000000000000000000000000600082015250565b600061137c600c83610a02565b915061138782611346565b602082019050919050565b600060208201905081810360008301526113ab8161136f565b9050919050565b7f416c726561647920766f74656400000000000000000000000000000000000000600082015250565b60006113e8600d83610a02565b91506113f3826113b2565b602082019050919050565b60006020820190508181036000830152611417816113db565b9050919050565b7f4e6f20766f74696e6720706f7765720000000000000000000000000000000000600082015250565b6000611454600f83610a02565b915061145f8261141e565b602082019050919050565b6000602082019050818103600083015261148381611447565b9050919050565b600060608201905061149f60008301866109a7565b6114ac60208301856109e8565b6114b96040830184610a93565b94935050505056fea26469706673582212201eceb90f3f914445fc8bb16e0b8874edf13a95f362d6cf9083f0c0899dd8191a64736f6c634300081c0033",
  "linkReferences": {},
  "deployedLinkReferences": {}
}